:020000040800F2
:10000000203F002049010008091400081F120008C1
:1000100077120008E5070008831D000800000000B3
:10002000000000000000000000000000FD170008B4
:10003000F510000800000000F91400083D19000840
:100040006301000863010008630100086301000800
:1000500063010008630100086301000863010008F0
:1000600063010008630100086301000863010008E0
:1000700063010008630100086301000863010008D0
:1000800063010008630100086301000863010008C0
:1000900063010008630100086301000863010008B0
:1000A00063010008630100086301000863010008A0
:1000B0006301000863010008630100086301000890
:1000C0006301000863010008630100086301000880
:1000D0006301000863010008630100086301000870
:1000E0006301000863010008630100086301000860
:1000F0006301000863010008630100086301000850
:10010000630100086301000863010008630100083F
:10011000630100086301000863010008630100082F
:10012000630100086301000863010008630100081F
:10013000DFF810D000F05AFA0048004769200008A4
:10014000AFF30080203F0020064880470648004764
:10015000FEE7FEE7FEE7FEE7FEE7FEE7FEE7FEE777
:10016000FEE7FEE741190008310100082DE9FE4FC6
:10017000804681EA0300C00F0C46009021F0004148
:1001800023F00045B8EB0200A94105D240462146C4
:1001900090461C460B46024623F00040104347D0D1
:1001A000270DC7F30A00C3F30A510290401A0190C9
:1001B00040286BDAC3F3130040F4801B009892468A
:1001C00020B10023D2EB030A63EB0B0B01985946D5
:1001D000C0F14002504600F07BF906460D465046FD
:1001E0005946019A00F093F910EB08006141002490
:1001F00087EA115284EAE7731A4340D0009A62B347
:10020000019A012A4FEA075215DC001B61EB02013B
:100210004FF0004202EA0752CDE90042001C41F5CE
:10022000801132462B4600F093F903B0BDE8F08F01
:1002300040462146F9E7001B61EB0201001C41F535
:10024000801300185B412018A2F5001747EB03014B
:1002500040EAD570B6196D4111E06D084FEA3606D7
:1002600045EAC0754FEA0752001B61EB0201001C12
:1002700041F5801149084FEA3000001951413246DA
:100280002B4603B0BDE8F04F00F053B900980122AF
:1002900040000023D0EB020263EBE073009821469C
:1002A0004FEAE074B8EB000061EB0401E9E783F08A
:1002B00000435BE781F0004158E72DE9FE4F81EAFA
:1002C000030404F0004421F0004100944FF0000BBF
:1002D00023F0004350EA01045ED052EA03045BD0ED
:1002E000C3F30A54C1F30A552C44A4F2F334019425
:1002F000A0FB0254C1F3130141F48011C3F31303B3
:1003000043F4801301FB024400FB034E840A970A66
:1003100044EA815447EA8357A4FB076802958D0A93
:1003200005FB07854FEA932C04FB0C542705029D1F
:100330004FEA065847EA1637B5EB08056EEB070C8F
:10034000870E920E47EA811742EA8312A7FB020149
:10035000B6EB0B0164EB00042B0D43EA0C335E1883
:1003600044EB1C50DA465146E7FB0201C5F3130487
:100370004FEA0B3343EA14534FEA0432019C43EA39
:100380000603A4F10C040294009CCDE900B400F033
:10039000DFF803B0BDE8F08F00200146F9E72DE952
:1003A000F04D81EA030404F0004B21F000451446AF
:1003B0004FF0000A23F0004150EA050220D054EA31
:1003C00001021DD0C5F30A570246C5F31303C1F35A
:1003D0001300C1F30A5640F4801543F48013A7EBD1
:1003E0000608101BD64608F2FD3873EB050002D351
:1003F00008F1010801E092185B41B8F1000F03DA3F
:1004000000200146BDE8F08D00204FF48011064623
:1004100084460EE0171B73EB050705D3121B63EB35
:10042000050306434CEA010C49084FEA30009218D4
:100430005B4150EA0107EDD152EA030012D082EA93
:10044000040083EA0501084305D0101BAB4106D226
:100450000122002306E000224FF0004302E06FF08B
:10046000010253101AEB06004CEB085110EB0A0086
:1004700041EB0B01BDE8F04D00F05BB80EB5C10FCC
:1004800080EAE0700844CA07002140F233438DE857
:100490000E000A460B4600F05BF803B000BDC1F346
:1004A0000A5210B5C1F3130140F2FF3341F4801139
:1004B0009A4201DA002010BD40F233439A42A2F280
:1004C000334203DC524200F012F810BD904010BDE0
:1004D000202A04DB203A00FA02F100207047914004
:1004E000C2F1200320FA03F3194390407047202AF9
:1004F00004DB203A21FA02F00021704721FA02F3CE
:10050000D040C2F120029140084319467047202A8A
:1005100006DBCB17203A41FA02F043EAE07306E02B
:1005200041FA02F3D040C2F120029140084319463B
:10053000704710B5141E73F1000408DA401C41F135
:10054000000192185B411A4301D120F0010010BD57
:100550002DE9F04D92469B4611B1B1FA81F202E0CD
:10056000B0FA80F220329046FFF7B2FF04460F4601
:1005700040EA0A0041EA0B0153465A46084313D0A9
:10058000114653EA010019D0C8F140025046FFF766
:10059000AEFF05460E46504659464246FFF798FFC5
:1005A000084305D0012004E020463946BDE8F08D1F
:1005B0000020054346EAE0762C4337430A9863055A
:1005C000E40AA0EB08000022FD0A44EA47540A307E
:1005D00002D500200146E9E7010510196941DDE96E
:1005E000084500196941BDE8F04DA2E7064C074DEA
:1005F00006E0E06840F0010394E8070098471034F3
:10060000AC42F6D3FFF798FD98200008B820000808
:1006100070B50546012D02D0022D0CD105E0012058
:100620000B49087001F01AFC10E00020084908701E
:1006300001F014FC0AE0002405E00021204601F04E
:1006400099FC601CC4B2042CF7DB00BF00BF70BD76
:100650001A00002008B501213C2000F06FFF48F28D
:10066000F000ADF8000010208DF8030003208DF895
:10067000020069461E4800F03EFD4FF2FB30ADF827
:10068000000010208DF8030003208DF80200694659
:10069000184800F030FD41F63040ADF80000102061
:1006A0008DF8030003208DF802006946124800F01F
:1006B00022FD0420ADF8000010208DF80300032077
:1006C0008DF8020069460D4800F015FD0220ADF8D6
:1006D000000010208DF8030003208DF80200694609
:1006E000034800F008FD01200549086008BD00002E
:1006F00000080140000C01400010014000140140BE
:10070000840121422DE9F04F89B08246BAF1050FEC
:100710001ED2DFE80AF00305080B0E00002419E0E2
:100720004FF4E16416E040F6B83413E040F6D864C4
:1007300010E040F6D8640120244908602449C1F83B
:10074000B8012249083908602149C1F8B00101E027
:10075000002400BF00BF4FF0000930E01D4931F90F
:100760001900FFF78BFECDE900012046FFF786FE5A
:1007700007460022184BFFF7F9FC0546DDE9002388
:10078000FFF795FD0022154BCDE90201FFF707FEAB
:100790000022134BCDE90401FFF78FFDCDE90601DF
:1007A000FFF77DFE1FFA80FB5946484601F0E2FB49
:1007B000012001F01FFC09F1010000F0FF09B9F16F
:1007C000040FCBDB09B0BDE8F08F0000BC812142F3
:1007D00000802142103B00200088B3400088C340C5
:1007E000E0FFEF4000BFFEE710B50021837A012251
:1007F00002FA03F13D4A126842F001023B4B1A60D3
:100800003A4A1C3212688A43384B1C331A60027B06
:10081000CAB9364A0C3212688A43344B0C331A6018
:100820004288C38842EA0343304A4032847A42F81D
:1008300034300288838842EA03432C4A4032847A67
:1008400002EBC4025360027B012A19D1274A0C3201
:1008500012680A43254B0C331A604288038842EA27
:100860000343224A4032847A42F83430C288838873
:1008700042EA03431D4A4032847A02EBC4025360C9
:10088000C27A3AB9194A121D12688A43174B1B1DC6
:100890001A6006E0154A121D12680A43134B1B1D0D
:1008A0001A60028932B9114A143212688A430F4B16
:1008B00014331A600289012A06D10C4A14321268D4
:1008C0000A430A4B14331A60427B012A06D1074AB5
:1008D0001C3212680A43054B1C331A60034A126823
:1008E00022F00102014B1A6010BD000000660040BA
:1008F00030B5024600200023146824F0020414607E
:10090000146844F00104146000E05B1C546804F0B7
:1009100001041CB94FF6FF74A342F6D1546804F0E9
:1009200001040CB900206CE08C79012C04D114680E
:1009300044F08004146003E0146824F08004146020
:10094000CC79012C04D1146844F04004146003E015
:10095000146824F0400414600C7A012C04D114684B
:1009600044F02004146003E0146824F020041460B0
:100970004C7A012C04D1146844F01004146003E094
:10098000146824F0100414608C7A012C04D11468CB
:1009900044F00804146003E0146824F008041460B0
:1009A000CC7A012C04D1146844F00404146003E0F0
:1009B000146824F0040414608C78A407CD7844EA09
:1009C00005640D7944EA05444D7944EA05540D88DF
:1009D0006D1E2C43D461146824F0010414600023BC
:1009E00000E05B1C546804F001041CB14FF6FF7476
:1009F000A342F6D1546804F001040CB1002000E0D9
:100A0000012030BD0246002019B9D36803F003006D
:100A100006E0012903D1136903F0030000E0002080
:100A2000704710B500F5D87303EB01131B6803F092
:100A300004031372137A53B900F5D87303EB01134F
:100A40001B6840F2FF7404EA5353136009E000F599
:100A5000D87303EB01131B686FF0604404EAD303FF
:100A6000536000F5D87303EB01131B6803F0020316
:100A7000537200F5D87303EB01135B6803F00F03A7
:100A8000937200F5D87303EB01135B681B0AD374F0
:100A900000F5D87303EB01139B68D37200F5D8738C
:100AA00003EB01139B681C0A147300F5D87303EB66
:100AB00001139B681C0C547300F5D87303EB0113EE
:100AC0009B681B0E937300F5D87303EB0113DB686F
:100AD000D37300F5D87303EB0113DB681C0A14749D
:100AE00000F5D87303EB0113DB681C0C547400F59C
:100AF000D87303EB0113DB681B0E937421B9C36831
:100B000043F02003C36003E0036943F02003036163
:100B100010BD10B502460020936803F08063B3F166
:100B2000806F00D110E0936803F00063B3F1006FB1
:100B300001D1012008E0936803F08053B3F1805F96
:100B400001D1022000E00420042874D002F5C07313
:100B500003EB00131B6803F0010402F5C07303EB01
:100B600000131C600B7A7BB94B7A0C8843EA445320
:100B700002F5C07404EB00142468234302F5C0742A
:100B800004EB0014236010E00B7A4C6843EAC403C2
:100B90004C7A234302F5C07404EB00142468234309
:100BA00002F5C07404EB001423608B7A03F00F038A
:100BB0008B7202F5C07303EB00135B6823F00F0424
:100BC00002F5C07303EB00135C6002F5C07303EB26
:100BD00000135B688C7A234302F5C07404EB0014A5
:100BE00063608B7B1C064B7B44EA03440B7B44EA2B
:100BF0000323CC7A234302F5C07404EB0014A360F2
:100C00008B7C1C064B7C44EA03440B7C44EA0323A4
:100C1000CC7B234302F5C07404EB0014E36002F5BF
:100C2000C07303EB00131B6843F0010402F5C073AB
:100C300003EB00131C6010BD10B50246002321B168
:100C4000012907D002290FD109E090681D4C00EA64
:100C500004030BE090681C4C00EA040306E0906873
:100C60001A4C00EA040301E0002300BF00BF184C47
:100C7000181BA34216D007DC83B16FF080601844C4
:100C800070B1022818D111E0B0F5007F10D0114CDE
:100C9000204448B1B0F5003F0ED10BE002230DE037
:100CA00000230BE0002309E0002307E0012305E017
:100CB000012303E0012301E0002300BF00BFD8B2FD
:100CC00010BD000003000004000300080000031032
:100CD000000100080001FFF77CB504460D464FF601
:100CE000FF70019048F20506002000902DE014F8F6
:100CF000010B00906946684600F0A8FABDF80400B0
:100D00009DF8001080EA012001900020144908603D
:100D100017E0BDF8040000F4004030B1BDF8040055
:100D200086EA400080B2019006E0BDF804004FF66C
:100D3000FF7101EA4000019009480068401C084921
:100D40000860074800680828E3DB281EA5F10105B4
:100D5000CDD101A901A800F064FABDF804007CBD62
:100D6000140000202DE9F041044606212046FFF73B
:100D7000B3FF0546C01705EB1060C0F30726062138
:100D80002046FFF7A9FF0546C01705EB10600012CB
:100D9000A5EB0020C7B22078AC287CD1A07803282E
:100DA000FBD1A079B842F8D1E079B042F5D1E07832
:100DB000012804D0042857D00528EED19BE02079E3
:100DC00006284ED2DFE800F04D0314202B34607962
:100DD000012807D10220FFF795FCE221534800F0DB
:100DE000BDFF04E0607910B90020FFF78BFC39E00B
:100DF0006079012806D1FFF70BFC00214B4800F079
:100E0000ADFF00E000BF2DE06079012802D100F0C5
:100E1000C9FF03E0607908B900F03AFB22E060798D
:100E2000012803D10220FFF7F3FB00E000BF19E027
:100E30006079012809D100F0EBFF3D4A3D48017877
:100E40003D48006800F0B8FA0AE0607940B900F067
:100E500033FB3A4A374801783748006800F0ACFA6B
:100E600000E000BF00BF00BF6079052840D2DFE886
:100E700000F003131E2934000020FFF743FC552126
:100E80002A4800F06BFF2E4A2A4801782A48006859
:100E900000F092FA2DE047E00120FFF733FC294AE9
:100EA000244801782448006800F086FA21E00220F6
:100EB000FFF728FC244A1F4801781F48006800F00B
:100EC0007BFA16E00320FFF71DFC204A1948017841
:100ED0001948006800F070FA0BE00420FFF712FCDC
:100EE0001B4A144801781448006800F065FA00E0D5
:100EF00000BF00BF00BF2079012802D0022811D115
:100F000007E06079012802D1FFF782FB00E000BF13
:100F100009E06079012803D10220FFF779FB00E0A6
:100F200000BF00E000BF00BFBDE8F0810038014015
:100F30002800002064000020600000203000002015
:100F40003800002040000020480000205000002011
:100F50005800002021B1026842F00102026004E062
:100F600002684FF6FE731A400260704701684FF640
:100F7000FE72114001600021016041608160C1602A
:100F80004B49884208D14A490839496841F00F0164
:100F9000474A083A51608AE045491431884208D1ED
:100FA00043490839496841F0F001414A083A516023
:100FB0007DE03F492831884208D13D4908394968D8
:100FC00041F470613A4A083A516070E038493C3166
:100FD000884208D136490839496841F47041344A99
:100FE000083A516063E032495031884208D13049B3
:100FF0000839496841F470212D4A083A516056E099
:101000002B496431884208D129490839496841F49B
:101010007001274A083A516049E0254978318842F1
:1010200008D123490839496841F07061204A083ADB
:1010300051603CE01F49884206D1011F096841F018
:101040000F01021F116032E01A491431884208D1A1
:101050001849091F096841F0F001164A121F116072
:1010600025E014492831884208D11249091F09682E
:1010700041F470610F4A121F116018E00D493C31B4
:10108000884208D10B49091F096841F47041094A97
:10109000121F11600BE007495031884207D1054902
:1010A000091F096841F47021024A121F116070473C
:1010B000080002400804024010B50022026847F60A
:1010C000F0739A430C6A8B6823430C6923434C6981
:1010D00023438C692343CC6923434C6A23438C6AA2
:1010E00023431A430260CB6843600B6883604B68FC
:1010F000C36010BD70472DE9F0410246002500266F
:10110000002000230024002791F803C00CF00F05F5
:1011100091F803C00CF0100CBCF1000F03D091F853
:1011200002C04CEA050591F800C0BCF1000F31D0B7
:10113000146800202BE04FF0010C0CFA00F3B1F81A
:1011400000C00CEA03069E4220D183004FF00F0C32
:101150000CFA03F7BC4305FA03FC4CEA040491F8CB
:1011600003C0BCF1280F06D14FF0010C0CFA00FCB3
:10117000C2F814C00AE091F803C0BCF1480F05D1D1
:101180004FF0010C0CFA00FCC2F810C0401C0828FB
:10119000D1D31460B1F800C0BCF1FF0F34DD546846
:1011A00000202EE000F1080C4FF0010808FA0CF3C3
:1011B000B1F800C00CEA03069E4221D183004FF033
:1011C0000F0C0CFA03F7BC4305FA03FC4CEA0404C9
:1011D00091F803C0BCF1280F05D100F1080C08FA02
:1011E0000CF8C2F8148091F803C0BCF1480F07D185
:1011F00000F1080C4FF0010808FA0CF8C2F8108052
:10120000401C0828CED35460BDE8F081416170478E
:10121000016170470AB1016100E04161704700BFA0
:10122000FEE730B50246002300200BE00C880125C4
:1012300085402C402CB1C0F10F050124AC401C436B
:10124000A3B2401C1028F1DB138030BD30B502463C
:10125000002300200BE00C78012585402C402CB1A8
:10126000C0F107050124AC401C43E3B2401C082830
:10127000F1DB137030BD00BFFEE7000000B589B0A0
:101280000121480600F04AF90121042000F056F936
:1012900018208DF823004FF48050ADF82000032073
:1012A0008DF8220008A92348FFF725FF48208DF874
:1012B00023004FF40060ADF8200008A91D48FFF797
:1012C0001AFF3020ADF8140000208DF816008DF8BC
:1012D000170001208DF8180002208DF81900002059
:1012E0008DF81A008DF81B008DF81C008DF81D007C
:1012F0008DF81E008DF81F0005A90F48FFF7F8FABA
:101300000020ADF80400ADF80600ADF80800ADF817
:101310000A00ADF80C008DF80E008DF80F000120CA
:101320008DF810008DF8110001A8FFF75DFA09B0E3
:1013300000BD0000000801400064004070B586B0A8
:1013400006460C46154601AA00211348FFF769FB23
:101350009DF80C00E8B99DF80C00D0B940F21111CD
:101360000198884215D1019830609DF80D0080B930
:101370009DF80E002070002005E00DF10F01095CC2
:101380002954411CC8B221788142F6DC2846FFF777
:10139000E9FC06B070BD00000064004010B50021FB
:1013A0000448FFF72FFB002801DD012010BD0020BD
:1013B000FCE7000000640040F0B585B004460D462F
:1013C00017460094019400208DF808008DF809005C
:1013D0008DF80A5000BF05E03A5C0DF10B010A548C
:1013E000411CC8B2A842F7DB69460648FFF791FBEB
:1013F000064600BF31460348FFF71EFC0128F9D11D
:1014000005B0F0BD006400407047000070B50021D9
:1014100000230F22C47804B3154C246804F4E0645C
:10142000C4F5E064210AC1F10403CA40447804FA17
:1014300003F184781440214309010E4C0678A1552C
:10144000047804F01F050124AC4005786D11AD004F
:1014500005F1E025C5F8004109E0047804F01F0516
:101460000124AC40044D0678761145F8264070BD45
:101470000CED00E000E400E080E100E002490143FF
:10148000024A1160704700000000FA050CED00E010
:101490000020054908600549C1F890010449086029
:1014A0000449C1F89001704798012142000021428F
:1014B000808121420000224200200A4908600A4936
:1014C000C1F89801074908390860091F08600749F1
:1014D0000860091F0860064908600649C1F89001C4
:1014E000704700009C01214200002142848121427A
:1014F00094012242000022427047000029B1064AAE
:1015000052690243044B5A6104E0034A5269824320
:10151000014B5A61704700000010024029B1064A91
:10152000D2690243044BDA6104E0034AD269824380
:10153000014BDA61704700000010024029B1064AF1
:1015400092690243044B9A6104E0034A9269824320
:10155000014B9A61704700000010024030B5002135
:101560000022002400232D4D6D6805F00C0121B1EF
:10157000042905D0082923D105E0294D056022E082
:10158000274D05601FE0254D6D6805F47012234D51
:101590006D6805F48034022505EB92421CB9214D9B
:1015A000554305600BE01D4D6D6805F400351DB118
:1015B0001C4D5543056002E0194D5543056002E09E
:1015C000174D056000BF00BF144D6D6805F0F001B8
:1015D0000909154D6B5C0568DD4045600F4D6D6870
:1015E00005F4E061090A104D6B5C4568DD408560DB
:1015F0000A4D6D6805F46051C90A0B4D6B5C456876
:10160000DD40C560054D6D6805F44041890B074D0F
:101610006B5CC568B5FBF3F5056130BD0010024099
:1016200000127A0000093D00000000201000002098
:101630002DE9F04104460D461646012C32D100201A
:101640006A4908606A49C1F88C016A4908606A49B8
:10165000C1F8A80100271CE0304600F0E9FC63480F
:10166000001D0068C0436249C1F898010846D0F8DF
:101670009C01C043C1F89C010846D0F8A001C043BA
:10168000C1F8A0010846D0F8A401C043C1F8A401E4
:101690007F1C4FF4487068434FF4B47190FBF1F035
:1016A000B842D9D2022C32D10120504908605049A9
:1016B000C1F88C014F4908604F49C1F8A8010027C3
:1016C0001CE0304600F0B4FC4848001D0068C043F0
:1016D0004749C1F898010846D0F89C01C043C1F8B9
:1016E0009C010846D0F8A001C043C1F8A0010846FB
:1016F000D0F8A401C043C1F8A4017F1C4FF4487086
:1017000068434FF4B47190FBF1F0B842D9D2032C86
:1017100033D10020354908603549C1F88C010120DA
:10172000344908603449C1F8A80100271CE030465C
:1017300000F07EFC2D48001D0068C0432C49C1F814
:1017400098010846D0F89C01C043C1F89C010846A6
:10175000D0F8A001C043C1F8A0010846D0F8A40108
:10176000C043C1F8A4017F1C4FF4487068434FF494
:10177000B47190FBF1F0B842D9D2042C33D10020DF
:101780001A4908601A49C1F88C01012019490860FA
:101790001949C1F8A80100271CE0304600F048FCB8
:1017A0001248001D0068C0431149C1F8980108465D
:1017B000D0F89C01C043C1F89C010846D0F8A001B4
:1017C000C043C1F8A0010846D0F8A401C043C1F845
:1017D000A4017F1C4FF4487068434FF4B47190FB30
:1017E000F1F0B842D9D2BDE8F081000094812142E5
:1017F00000802142B001224200002242704710B511
:1018000000F002F810BD00000CB50020019000901F
:101810003348006840F480303149086000BF3048E8
:10182000006800F4003000900198401C019000987E
:1018300018B90198B0F5A06FF1D12948006800F4FB
:10184000003010B10120009001E0002000900098CD
:10185000012843D12348006840F010002149086066
:101860000846006820F0030008600846006840F061
:10187000020008601A4840681949486008464068F4
:1018800048600846406840F4806048600846406808
:1018900020F47C1048600846406840F4E810486036
:1018A0000846006840F08070086000BF0C4800687F
:1018B00000F000700028F9D00948406820F00300CB
:1018C000074948600846406840F00200486000BF91
:1018D0000348406800F00C000828F9D10CBD000056
:1018E000001002400020024030B50146B1F1807F77
:1018F00001D3012030BD21F07F40401E4FF0E02297
:10190000506150170F22002807DA13071D0E094BEC
:1019100000F00F04241F1D5503E013071C0E064B97
:101920001C5400BF00204FF0E0229061072010619E
:101930000020DFE718ED00E000E400E07047000061
:1019400010B51348006840F00100114908600846CE
:101950004068104908400E494860084600680E4932
:1019600008400B4908600846006820F480200860A1
:101970000846406820F4FE0048604FF41F0088606D
:10198000FFF73DFF4FF000600449086010BD000004
:10199000001002400000FFF8FFFFF6FE08ED00E037
:1019A00010B592B0044601210846FFF7A7FD0121BA
:1019B00044F20400FFF7C2FD4FF40070ADF844009C
:1019C00018208DF8470003208DF8460011A93848EB
:1019D000FFF791FB4FF48060ADF8440004208DF8D0
:1019E000470011A93248FFF786FB0D940020ADF89F
:1019F0003800ADF83A00ADF83C00ADF840000C20DE
:101A0000ADF83E000DA92B4800F03CF94FF4A06062
:101A1000FFF734FD25208DF8300000208DF83100CF
:101A200001208DF832008DF833000CA8FFF7EEFC92
:101A3000002240F226611F4800F0FEF8002240F22A
:101A400025511C4800F0F8F8012240F224411948C1
:101A500000F0F2F801224021164800F0D7F80121E9
:101A6000144800F0BDF81448FFF780FA1148001D33
:101A70000190124802900020039041F288300490B7
:101A80000020059080200690002007900890099083
:101A90004FF480500A9000200B9001A90648FFF7F0
:101AA0000BFB01210448FFF755FA12B010BD0000EE
:101AB0000008014000380140580002407800002032
:101AC00010B592B0044601218804FFF727FD0121DB
:101AD0000820FFF733FD4FF48060ADF84400182074
:101AE0008DF8470003208DF8460011A93848FFF70C
:101AF00002FB4FF40060ADF8440004208DF847006D
:101B000011A93348FFF7F7FA0D940020ADF838001B
:101B1000ADF83A00ADF83C00ADF840000C20ADF84F
:101B20003E000DA92B4800F0ADF84FF4A060FFF780
:101B3000A5FC27208DF8300000208DF8310003200F
:101B40008DF8320001208DF833000CA8FFF75EFC01
:101B5000002240F226611F4800F06EF8002240F299
:101B600025511C4800F068F8012240F22441194830
:101B700000F062F801224021164800F047F80121E8
:101B8000144800F02DF81448FFF7F0F91148001D33
:101B90000190124802900020039041F28830049096
:101BA0000020059080200690002007900890099062
:101BB0004FF480500A9000200B9001A90648FFF7CF
:101BC0007BFA01210448FFF7C5F912B010BD0000EF
:101BD000000C01400048004030000240001400208A
:101BE00021B1828942F40052828104E082894DF65B
:101BF000FF731A408281704710B54FF41650FFF7FB
:101C0000CFFE4FF4E130FFF75BFF10BD1AB1838ABE
:101C10000B43838202E0838A8B43838270470246B0
:101C20000020B1F5007F00D100BF13880B400BB13D
:101C3000012000E000207047F0B503460024002694
:101C40000025002040F66A17B94200D100BF1846AF
:101C5000C1F3421401F01F06012707FA06F5012C13
:101C600001D10C3004E0022C01D1103000E014301E
:101C70001AB107682F43076002E00768AF430760A7
:101C8000F0BD00002DE9F04786B005460E46002461
:101C9000A24600BFA1460027B08900B100BF2F4671
:101CA0002C8A4CF6FF700440F08804432C82AC89E7
:101CB0004EF6F3100440B088318908437189084317
:101CC0000443AC81AC8A4FF6FF400440B089044322
:101CD000AC8201A8FFF742FC1F48874202D1DDF821
:101CE00010A001E0DDF80CA0A88900F4004040B18C
:101CF0000AEBCA0000EB0A1031684900B0FBF1F8AA
:101D000007E00AEBCA0000EB0A1031688900B0FB5B
:101D1000F1F86420B8FBF0F004012009642101FB14
:101D20001089A88900F4004040B1322000EBC900BE
:101D3000B0FBF1F000F00700044308E0322000EBB4
:101D400009106421B0FBF1F000F00F0004432C8176
:101D500006B0BDE8F08700000038014070B50446C9
:101D60000D462946204600F008F800BF8021204695
:101D7000FFF755FF0028F9D070BDC1F3080282803B
:101D8000704700BFFEE702E008C8121F08C1002A22
:101D9000FAD170477047002001E001C1121F002AEC
:101DA000FBD1704710B50020FEF7ACFC4FF47A7001
:101DB00000F020F90120114908601149C1F8900193
:101DC000104908601049C1F890014FF47A7000F092
:101DD00011F90A48006801280FD10848083800683E
:101DE00001280AD107480068012806D10748006881
:101DF000012802D10220FEF785FC10BD9801214286
:101E000000002142808121420000224290012242B2
:101E100001200D49086000200C49C1F898010120FB
:101E20000949083908600020091F08600120084995
:101E300008600020091F0860012006490860002092
:101E40000549C1F8900170479C01214200002142E0
:101E500084812142940122420000224210B54FF4B5
:101E6000E160254908800846B0F9000040F20D7194
:101E700090FBF1F201FB12001F4908801F48007817
:101E800001282DD100201E4908601E49C1F8880193
:101E90001D4908601D49C1F8BC011748B0F9000090
:101EA00000280CDB1448008881B24FF4FA7201203C
:101EB000FFF7BEFB4FF47A7000F09CF80CE00E4880
:101EC0000088404281B24FF4FA720020FFF7B0FB65
:101ED0004FF47A7000F08EF80020084908700AE08C
:101EE0000120074908600749C1F8880106490860D0
:101EF0000649C1F8BC0110BD1E0000201A000020D8
:101F00009081214200802242AC0122420000214205
:101F100008B501211020FFF711FB10208DF80300F8
:101F20000E20ADF8000003208DF8020069460E482F
:101F3000FFF7E1F808210C48FFF76AF902210A4887
:101F4000FFF764F9642000F055F84FF0E06000F00E
:101F500021F8642000F04EF8044800F01BF8044813
:101F600000F018F808BD000000100140FF00000458
:101F700000000A0970B505460E464FF0407405F0A2
:101F80000F0044EA005444EA0614204600F002F828
:101F900070BD000070B50446254600220821144893
:101FA000FFF738F900261AE0012202211048FFF756
:101FB00031F905F0004028B1012204210C48FFF757
:101FC00029F904E0002204210948FFF723F900223F
:101FD00002210748FFF71EF96D00701CC6B2202EC3
:101FE000E2DB012208210248FFF714F970BD00006E
:101FF0000010014070B504460C48FFF775FC002541
:1020000008E000BF4FF0E020006900F480300028B5
:10201000F8D06D1CA542F4D34FF0E020006920F009
:1020200001004FF0E021086170BD0000401901007F
:1020300070B504464820FFF757FC002508E000BFB4
:102040004FF0E020006900F480300028F8D06D1CCB
:10205000A542F4D34FF0E020006920F001004FF0DA
:10206000E021086170BD0000FEF7F4FAFFF7C4FD3F
:10207000FFF74EFFFFF702F907E0FFF78FF920B1F6
:10208000024A03490348FFF759F9F6E76D000020BB
:102090006C00002068000020B8200008000000202C
:1020A00078000000861D000830210008780000201C
:1020B000A83E0000961D0008000000000102030475
:1020C00001020304060708090204060800000000D4
:1020D0000000000000000000000000000000000000
:1020E0005AA505825140CAC75AA505825140B7F189
:1020F0005AA50582513000005AA5058251300001D1
:102100005AA50582513000025AA5058251300003BC
:102110005AA5058251300004330300000800000076
:1021200000000000000000000000000000000000AF
:0400000508000131BD
:00000001FF
